{
  "address": "0xd5aB8bE67C5Dcbc8E60c39Bc0e3BC03a24eeFB6d",
  "abi": [
    {
      "inputs": [
        {
          "internalType": "address",
          "name": "vrfCoordinatorV2",
          "type": "address"
        },
        {
          "internalType": "uint64",
          "name": "subscriptionId",
          "type": "uint64"
        },
        {
          "internalType": "bytes32",
          "name": "gasLane",
          "type": "bytes32"
        },
        {
          "internalType": "uint32",
          "name": "callbackGasLimit",
          "type": "uint32"
        },
        {
          "internalType": "string[3]",
          "name": "dogTokenUris",
          "type": "string[3]"
        },
        {
          "internalType": "uint256",
          "name": "mintFee",
          "type": "uint256"
        }
      ],
      "stateMutability": "nonpayable",
      "type": "constructor"
    },
    {
      "inputs": [
        {
          "internalType": "address",
          "name": "have",
          "type": "address"
        },
        {
          "internalType": "address",
          "name": "want",
          "type": "address"
        }
      ],
      "name": "OnlyCoordinatorCanFulfill",
      "type": "error"
    },
    {
      "inputs": [],
      "name": "RandomIpfsNft__NotEnoughFundsToMint",
      "type": "error"
    },
    {
      "inputs": [],
      "name": "RandomIpfsNft__RangeOutOfBounds",
      "type": "error"
    },
    {
      "inputs": [],
      "name": "RandomIpfsNft__TransferFailed",
      "type": "error"
    },
    {
      "anonymous": false,
      "inputs": [
        {
          "indexed": true,
          "internalType": "address",
          "name": "owner",
          "type": "address"
        },
        {
          "indexed": true,
          "internalType": "address",
          "name": "approved",
          "type": "address"
        },
        {
          "indexed": true,
          "internalType": "uint256",
          "name": "tokenId",
          "type": "uint256"
        }
      ],
      "name": "Approval",
      "type": "event"
    },
    {
      "anonymous": false,
      "inputs": [
        {
          "indexed": true,
          "internalType": "address",
          "name": "owner",
          "type": "address"
        },
        {
          "indexed": true,
          "internalType": "address",
          "name": "operator",
          "type": "address"
        },
        {
          "indexed": false,
          "internalType": "bool",
          "name": "approved",
          "type": "bool"
        }
      ],
      "name": "ApprovalForAll",
      "type": "event"
    },
    {
      "anonymous": false,
      "inputs": [
        {
          "indexed": false,
          "internalType": "enum RandomIpfsNft.Breed",
          "name": "dogBreed",
          "type": "uint8"
        },
        {
          "indexed": false,
          "internalType": "address",
          "name": "minter",
          "type": "address"
        }
      ],
      "name": "NftMinted",
      "type": "event"
    },
    {
      "anonymous": false,
      "inputs": [
        {
          "indexed": true,
          "internalType": "uint256",
          "name": "requestId",
          "type": "uint256"
        },
        {
          "indexed": false,
          "internalType": "address",
          "name": "requester",
          "type": "address"
        }
      ],
      "name": "NftRequested",
      "type": "event"
    },
    {
      "anonymous": false,
      "inputs": [
        {
          "indexed": true,
          "internalType": "address",
          "name": "previousOwner",
          "type": "address"
        },
        {
          "indexed": true,
          "internalType": "address",
          "name": "newOwner",
          "type": "address"
        }
      ],
      "name": "OwnershipTransferred",
      "type": "event"
    },
    {
      "anonymous": false,
      "inputs": [
        {
          "indexed": true,
          "internalType": "address",
          "name": "from",
          "type": "address"
        },
        {
          "indexed": true,
          "internalType": "address",
          "name": "to",
          "type": "address"
        },
        {
          "indexed": true,
          "internalType": "uint256",
          "name": "tokenId",
          "type": "uint256"
        }
      ],
      "name": "Transfer",
      "type": "event"
    },
    {
      "inputs": [
        {
          "internalType": "address",
          "name": "to",
          "type": "address"
        },
        {
          "internalType": "uint256",
          "name": "tokenId",
          "type": "uint256"
        }
      ],
      "name": "approve",
      "outputs": [],
      "stateMutability": "nonpayable",
      "type": "function"
    },
    {
      "inputs": [
        {
          "internalType": "address",
          "name": "owner",
          "type": "address"
        }
      ],
      "name": "balanceOf",
      "outputs": [
        {
          "internalType": "uint256",
          "name": "",
          "type": "uint256"
        }
      ],
      "stateMutability": "view",
      "type": "function"
    },
    {
      "inputs": [
        {
          "internalType": "uint256",
          "name": "tokenId",
          "type": "uint256"
        }
      ],
      "name": "getApproved",
      "outputs": [
        {
          "internalType": "address",
          "name": "",
          "type": "address"
        }
      ],
      "stateMutability": "view",
      "type": "function"
    },
    {
      "inputs": [
        {
          "internalType": "uint256",
          "name": "moddedRng",
          "type": "uint256"
        }
      ],
      "name": "getBreedFromModdedRng",
      "outputs": [
        {
          "internalType": "enum RandomIpfsNft.Breed",
          "name": "",
          "type": "uint8"
        }
      ],
      "stateMutability": "pure",
      "type": "function"
    },
    {
      "inputs": [],
      "name": "getChanceArray",
      "outputs": [
        {
          "internalType": "uint256[3]",
          "name": "",
          "type": "uint256[3]"
        }
      ],
      "stateMutability": "pure",
      "type": "function"
    },
    {
      "inputs": [
        {
          "internalType": "uint256",
          "name": "index",
          "type": "uint256"
        }
      ],
      "name": "getDogTokenUris",
      "outputs": [
        {
          "internalType": "string",
          "name": "",
          "type": "string"
        }
      ],
      "stateMutability": "view",
      "type": "function"
    },
    {
      "inputs": [],
      "name": "getMintFee",
      "outputs": [
        {
          "internalType": "uint256",
          "name": "",
          "type": "uint256"
        }
      ],
      "stateMutability": "view",
      "type": "function"
    },
    {
      "inputs": [
        {
          "internalType": "uint256",
          "name": "requestId",
          "type": "uint256"
        }
      ],
      "name": "getRequestIdToSenderId",
      "outputs": [
        {
          "internalType": "address",
          "name": "",
          "type": "address"
        }
      ],
      "stateMutability": "view",
      "type": "function"
    },
    {
      "inputs": [],
      "name": "getSubscriptionId",
      "outputs": [
        {
          "internalType": "uint256",
          "name": "",
          "type": "uint256"
        }
      ],
      "stateMutability": "view",
      "type": "function"
    },
    {
      "inputs": [],
      "name": "getTokenCounter",
      "outputs": [
        {
          "internalType": "uint256",
          "name": "",
          "type": "uint256"
        }
      ],
      "stateMutability": "view",
      "type": "function"
    },
    {
      "inputs": [
        {
          "internalType": "address",
          "name": "owner",
          "type": "address"
        },
        {
          "internalType": "address",
          "name": "operator",
          "type": "address"
        }
      ],
      "name": "isApprovedForAll",
      "outputs": [
        {
          "internalType": "bool",
          "name": "",
          "type": "bool"
        }
      ],
      "stateMutability": "view",
      "type": "function"
    },
    {
      "inputs": [],
      "name": "name",
      "outputs": [
        {
          "internalType": "string",
          "name": "",
          "type": "string"
        }
      ],
      "stateMutability": "view",
      "type": "function"
    },
    {
      "inputs": [],
      "name": "owner",
      "outputs": [
        {
          "internalType": "address",
          "name": "",
          "type": "address"
        }
      ],
      "stateMutability": "view",
      "type": "function"
    },
    {
      "inputs": [
        {
          "internalType": "uint256",
          "name": "tokenId",
          "type": "uint256"
        }
      ],
      "name": "ownerOf",
      "outputs": [
        {
          "internalType": "address",
          "name": "",
          "type": "address"
        }
      ],
      "stateMutability": "view",
      "type": "function"
    },
    {
      "inputs": [
        {
          "internalType": "uint256",
          "name": "requestId",
          "type": "uint256"
        },
        {
          "internalType": "uint256[]",
          "name": "randomWords",
          "type": "uint256[]"
        }
      ],
      "name": "rawFulfillRandomWords",
      "outputs": [],
      "stateMutability": "nonpayable",
      "type": "function"
    },
    {
      "inputs": [],
      "name": "renounceOwnership",
      "outputs": [],
      "stateMutability": "nonpayable",
      "type": "function"
    },
    {
      "inputs": [],
      "name": "requestNft",
      "outputs": [
        {
          "internalType": "uint256",
          "name": "requestId",
          "type": "uint256"
        }
      ],
      "stateMutability": "payable",
      "type": "function"
    },
    {
      "inputs": [
        {
          "internalType": "address",
          "name": "from",
          "type": "address"
        },
        {
          "internalType": "address",
          "name": "to",
          "type": "address"
        },
        {
          "internalType": "uint256",
          "name": "tokenId",
          "type": "uint256"
        }
      ],
      "name": "safeTransferFrom",
      "outputs": [],
      "stateMutability": "nonpayable",
      "type": "function"
    },
    {
      "inputs": [
        {
          "internalType": "address",
          "name": "from",
          "type": "address"
        },
        {
          "internalType": "address",
          "name": "to",
          "type": "address"
        },
        {
          "internalType": "uint256",
          "name": "tokenId",
          "type": "uint256"
        },
        {
          "internalType": "bytes",
          "name": "data",
          "type": "bytes"
        }
      ],
      "name": "safeTransferFrom",
      "outputs": [],
      "stateMutability": "nonpayable",
      "type": "function"
    },
    {
      "inputs": [
        {
          "internalType": "address",
          "name": "operator",
          "type": "address"
        },
        {
          "internalType": "bool",
          "name": "approved",
          "type": "bool"
        }
      ],
      "name": "setApprovalForAll",
      "outputs": [],
      "stateMutability": "nonpayable",
      "type": "function"
    },
    {
      "inputs": [
        {
          "internalType": "bytes4",
          "name": "interfaceId",
          "type": "bytes4"
        }
      ],
      "name": "supportsInterface",
      "outputs": [
        {
          "internalType": "bool",
          "name": "",
          "type": "bool"
        }
      ],
      "stateMutability": "view",
      "type": "function"
    },
    {
      "inputs": [],
      "name": "symbol",
      "outputs": [
        {
          "internalType": "string",
          "name": "",
          "type": "string"
        }
      ],
      "stateMutability": "view",
      "type": "function"
    },
    {
      "inputs": [
        {
          "internalType": "uint256",
          "name": "tokenId",
          "type": "uint256"
        }
      ],
      "name": "tokenURI",
      "outputs": [
        {
          "internalType": "string",
          "name": "",
          "type": "string"
        }
      ],
      "stateMutability": "view",
      "type": "function"
    },
    {
      "inputs": [
        {
          "internalType": "address",
          "name": "from",
          "type": "address"
        },
        {
          "internalType": "address",
          "name": "to",
          "type": "address"
        },
        {
          "internalType": "uint256",
          "name": "tokenId",
          "type": "uint256"
        }
      ],
      "name": "transferFrom",
      "outputs": [],
      "stateMutability": "nonpayable",
      "type": "function"
    },
    {
      "inputs": [
        {
          "internalType": "address",
          "name": "newOwner",
          "type": "address"
        }
      ],
      "name": "transferOwnership",
      "outputs": [],
      "stateMutability": "nonpayable",
      "type": "function"
    },
    {
      "inputs": [],
      "name": "withdraw",
      "outputs": [],
      "stateMutability": "nonpayable",
      "type": "function"
    }
  ],
  "transactionHash": "0x5436e23cce2158c240c59e808d1af23c34b1ad499d9d5755da47b7a8ab6adfe8",
  "args": [
    "0x2Ca8E0C643bDe4C2E08ab1fA0da3401AdAD7734D",
    "8493",
    "0x79d3d8832d904592c0bf9818b621522c988bb8b0c05cdc3b15aea1b6e8db0c15",
    "500000",
    [
      "ipfs://Qmdo4vEHQevMJ8C2emkDzabYh8tSqTmTePR4zMELaTGPQi",
      "ipfs://QmccgQ9U7s2Ppw5kQQqEnsuUbprMNCWJPy2XAfTD82PJZp",
      "ipfs://QmU18P4PhZHgNbU9RQgqhT3KNyQoFGVC18FqkP2uGNKYga"
    ],
    "10000000000000000"
  ],
  "numDeployments": 1,
  "solcInputHash": "fee44b79ef3f11a09e8be67cd4e40675",
  "bytecode": "0x6101406040523480156200001257600080fd5b506040516200496638038062004966833981810160405281019062000038919062000757565b6040518060400160405280600f81526020017f52616e646f6d2049504653204e465400000000000000000000000000000000008152506040518060400160405280600381526020017f52494e0000000000000000000000000000000000000000000000000000000000815250878073ffffffffffffffffffffffffffffffffffffffff1660808173ffffffffffffffffffffffffffffffffffffffff1681525050508160009081620000eb919062000a53565b508060019081620000fd919062000a53565b5050506200012062000114620001be60201b60201c565b620001c660201b60201c565b8573ffffffffffffffffffffffffffffffffffffffff1660a08173ffffffffffffffffffffffffffffffffffffffff16815250508360c081815250508467ffffffffffffffff1660e08167ffffffffffffffff16815250508263ffffffff166101008163ffffffff1681525050600060098190555081600a906003620001a89291906200028c565b5080610120818152505050505050505062000b3a565b600033905090565b6000600760009054906101000a900473ffffffffffffffffffffffffffffffffffffffff16905081600760006101000a81548173ffffffffffffffffffffffffffffffffffffffff021916908373ffffffffffffffffffffffffffffffffffffffff1602179055508173ffffffffffffffffffffffffffffffffffffffff168173ffffffffffffffffffffffffffffffffffffffff167f8be0079c531659141344cd1fd0a4f28419497f9722a3daafe3b4186f6b6457e060405160405180910390a35050565b828054828255906000526020600020908101928215620002d9579160200282015b82811115620002d8578251829081620002c7919062000a53565b5091602001919060010190620002ad565b5b509050620002e89190620002ec565b5090565b5b8082111562000310576000818162000306919062000314565b50600101620002ed565b5090565b50805462000322906200084c565b6000825580601f1062000336575062000357565b601f0160209004906000526020600020908101906200035691906200035a565b5b50565b5b80821115620003755760008160009055506001016200035b565b5090565b6000604051905090565b600080fd5b600080fd5b600073ffffffffffffffffffffffffffffffffffffffff82169050919050565b6000620003ba826200038d565b9050919050565b620003cc81620003ad565b8114620003d857600080fd5b50565b600081519050620003ec81620003c1565b92915050565b600067ffffffffffffffff82169050919050565b6200041181620003f2565b81146200041d57600080fd5b50565b600081519050620004318162000406565b92915050565b6000819050919050565b6200044c8162000437565b81146200045857600080fd5b50565b6000815190506200046c8162000441565b92915050565b600063ffffffff82169050919050565b6200048d8162000472565b81146200049957600080fd5b50565b600081519050620004ad8162000482565b92915050565b600080fd5b6000601f19601f8301169050919050565b7f4e487b7100000000000000000000000000000000000000000000000000000000600052604160045260246000fd5b6200050382620004b8565b810181811067ffffffffffffffff82111715620005255762000524620004c9565b5b80604052505050565b60006200053a62000379565b9050620005488282620004f8565b919050565b600067ffffffffffffffff8211156200056b576200056a620004c9565b5b602082029050919050565b600080fd5b600080fd5b600067ffffffffffffffff8211156200059e576200059d620004c9565b5b620005a982620004b8565b9050602081019050919050565b60005b83811015620005d6578082015181840152602081019050620005b9565b60008484015250505050565b6000620005f9620005f38462000580565b6200052e565b9050828152602081018484840111156200061857620006176200057b565b5b62000625848285620005b6565b509392505050565b600082601f830112620006455762000644620004b3565b5b815162000657848260208601620005e2565b91505092915050565b60006200067762000671846200054d565b6200052e565b9050806020840283018581111562000694576200069362000576565b5b835b81811015620006e257805167ffffffffffffffff811115620006bd57620006bc620004b3565b5b808601620006cc89826200062d565b8552602085019450505060208101905062000696565b5050509392505050565b600082601f830112620007045762000703620004b3565b5b60036200071384828562000660565b91505092915050565b6000819050919050565b62000731816200071c565b81146200073d57600080fd5b50565b600081519050620007518162000726565b92915050565b60008060008060008060c0878903121562000777576200077662000383565b5b60006200078789828a01620003db565b96505060206200079a89828a0162000420565b9550506040620007ad89828a016200045b565b9450506060620007c089828a016200049c565b935050608087015167ffffffffffffffff811115620007e457620007e362000388565b5b620007f289828a01620006ec565b92505060a06200080589828a0162000740565b9150509295509295509295565b600081519050919050565b7f4e487b7100000000000000000000000000000000000000000000000000000000600052602260045260246000fd5b600060028204905060018216806200086557607f821691505b6020821081036200087b576200087a6200081d565b5b50919050565b60008190508160005260206000209050919050565b60006020601f8301049050919050565b600082821b905092915050565b600060088302620008e57fffffffffffffffffffffffffffffffffffffffffffffffffffffffffffffffff82620008a6565b620008f18683620008a6565b95508019841693508086168417925050509392505050565b6000819050919050565b6000620009346200092e62000928846200071c565b62000909565b6200071c565b9050919050565b6000819050919050565b620009508362000913565b620009686200095f826200093b565b848454620008b3565b825550505050565b600090565b6200097f62000970565b6200098c81848462000945565b505050565b5b81811015620009b457620009a860008262000975565b60018101905062000992565b5050565b601f82111562000a0357620009cd8162000881565b620009d88462000896565b81016020851015620009e8578190505b62000a00620009f78562000896565b83018262000991565b50505b505050565b600082821c905092915050565b600062000a286000198460080262000a08565b1980831691505092915050565b600062000a43838362000a15565b9150826002028217905092915050565b62000a5e8262000812565b67ffffffffffffffff81111562000a7a5762000a79620004c9565b5b62000a8682546200084c565b62000a93828285620009b8565b600060209050601f83116001811462000acb576000841562000ab6578287015190505b62000ac2858262000a35565b86555062000b32565b601f19841662000adb8662000881565b60005b8281101562000b055784890151825560018201915060208501945060208101905062000ade565b8683101562000b25578489015162000b21601f89168262000a15565b8355505b6001600288020188555050505b505050505050565b60805160a05160c05160e0516101005161012051613dc762000b9f60003960008181610d8a0152610f610152600061103b01526000818161101801526112d101526000610ff701526000610fbb01526000818161095e01526109b20152613dc76000f3fe6080604052600436106101815760003560e01c806370a08231116100d1578063a51cccf31161008a578063c87b56dd11610064578063c87b56dd14610575578063de3d9fb7146105b2578063e985e9c5146105dd578063f2fde38b1461061a57610181565b8063a51cccf3146104f1578063aa1524911461052e578063b88d4fde1461054c57610181565b806370a08231146103f3578063715018a6146104305780637a5caab3146104475780638da5cb5b1461047257806395d89b411461049d578063a22cb465146104c857610181565b806323b872dd1161013e57806342842e0e1161011857806342842e0e146103375780635dacf5f4146103605780636352211e1461038b5780636e02007d146103c857610181565b806323b872dd146102ba5780633af25975146102e35780633ccfd60b1461032057610181565b806301ffc9a71461018657806306fdde03146101c3578063081812fc146101ee578063095ea7b31461022b5780631dddfb6e146102545780631fe543e314610291575b600080fd5b34801561019257600080fd5b506101ad60048036038101906101a89190612755565b610643565b6040516101ba919061279d565b60405180910390f35b3480156101cf57600080fd5b506101d8610725565b6040516101e59190612848565b60405180910390f35b3480156101fa57600080fd5b50610215600480360381019061021091906128a0565b6107b7565b604051610222919061290e565b60405180910390f35b34801561023757600080fd5b50610252600480360381019061024d9190612955565b6107fd565b005b34801561026057600080fd5b5061027b600480360381019061027691906128a0565b610914565b604051610288919061290e565b60405180910390f35b34801561029d57600080fd5b506102b860048036038101906102b39190612add565b61095c565b005b3480156102c657600080fd5b506102e160048036038101906102dc9190612b39565b610a1c565b005b3480156102ef57600080fd5b5061030a600480360381019061030591906128a0565b610a7c565b6040516103179190612848565b60405180910390f35b34801561032c57600080fd5b50610335610b2c565b005b34801561034357600080fd5b5061035e60048036038101906103599190612b39565b610be0565b005b34801561036c57600080fd5b50610375610c00565b6040516103829190612c37565b60405180910390f35b34801561039757600080fd5b506103b260048036038101906103ad91906128a0565b610c2b565b6040516103bf919061290e565b60405180910390f35b3480156103d457600080fd5b506103dd610cb1565b6040516103ea9190612c61565b60405180910390f35b3480156103ff57600080fd5b5061041a60048036038101906104159190612c7c565b610cbb565b6040516104279190612c61565b60405180910390f35b34801561043c57600080fd5b50610445610d72565b005b34801561045357600080fd5b5061045c610d86565b6040516104699190612c61565b60405180910390f35b34801561047e57600080fd5b50610487610dae565b604051610494919061290e565b60405180910390f35b3480156104a957600080fd5b506104b2610dd8565b6040516104bf9190612848565b60405180910390f35b3480156104d457600080fd5b506104ef60048036038101906104ea9190612cd5565b610e6a565b005b3480156104fd57600080fd5b50610518600480360381019061051391906128a0565b610e80565b6040516105259190612d8c565b60405180910390f35b610536610f5d565b6040516105439190612c61565b60405180910390f35b34801561055857600080fd5b50610573600480360381019061056e9190612e5c565b611159565b005b34801561058157600080fd5b5061059c600480360381019061059791906128a0565b6111bb565b6040516105a99190612848565b60405180910390f35b3480156105be57600080fd5b506105c76112cd565b6040516105d49190612c61565b60405180910390f35b3480156105e957600080fd5b5061060460048036038101906105ff9190612edf565b6112ff565b604051610611919061279d565b60405180910390f35b34801561062657600080fd5b50610641600480360381019061063c9190612c7c565b611393565b005b60007f80ac58cd000000000000000000000000000000000000000000000000000000007bffffffffffffffffffffffffffffffffffffffffffffffffffffffff1916827bffffffffffffffffffffffffffffffffffffffffffffffffffffffff1916148061070e57507f5b5e139f000000000000000000000000000000000000000000000000000000007bffffffffffffffffffffffffffffffffffffffffffffffffffffffff1916827bffffffffffffffffffffffffffffffffffffffffffffffffffffffff1916145b8061071e575061071d82611416565b5b9050919050565b60606000805461073490612f4e565b80601f016020809104026020016040519081016040528092919081815260200182805461076090612f4e565b80156107ad5780601f10610782576101008083540402835291602001916107ad565b820191906000526020600020905b81548152906001019060200180831161079057829003601f168201915b5050505050905090565b60006107c282611480565b6004600083815260200190815260200160002060009054906101000a900473ffffffffffffffffffffffffffffffffffffffff169050919050565b600061080882610c2b565b90508073ffffffffffffffffffffffffffffffffffffffff168373ffffffffffffffffffffffffffffffffffffffff1603610878576040517f08c379a000000000000000000000000000000000000000000000000000000000815260040161086f90612ff1565b60405180910390fd5b8073ffffffffffffffffffffffffffffffffffffffff166108976114cb565b73ffffffffffffffffffffffffffffffffffffffff1614806108c657506108c5816108c06114cb565b6112ff565b5b610905576040517f08c379a00000000000000000000000000000000000000000000000000000000081526004016108fc90613083565b60405180910390fd5b61090f83836114d3565b505050565b60006008828154811061092a576109296130a3565b5b9060005260206000200160009054906101000a900473ffffffffffffffffffffffffffffffffffffffff169050919050565b7f000000000000000000000000000000000000000000000000000000000000000073ffffffffffffffffffffffffffffffffffffffff163373ffffffffffffffffffffffffffffffffffffffff1614610a0e57337f00000000000000000000000000000000000000000000000000000000000000006040517f1cf993f4000000000000000000000000000000000000000000000000000000008152600401610a059291906130d2565b60405180910390fd5b610a18828261158c565b5050565b610a2d610a276114cb565b82611736565b610a6c576040517f08c379a0000000000000000000000000000000000000000000000000000000008152600401610a639061316d565b60405180910390fd5b610a778383836117cb565b505050565b6060600a8281548110610a9257610a916130a3565b5b906000526020600020018054610aa790612f4e565b80601f0160208091040260200160405190810160405280929190818152602001828054610ad390612f4e565b8015610b205780601f10610af557610100808354040283529160200191610b20565b820191906000526020600020905b815481529060010190602001808311610b0357829003601f168201915b50505050509050919050565b610b34611ac4565b600047905060003373ffffffffffffffffffffffffffffffffffffffff1682604051610b5f906131be565b60006040518083038185875af1925050503d8060008114610b9c576040519150601f19603f3d011682016040523d82523d6000602084013e610ba1565b606091505b5050905080610bdc576040517fca7e25b700000000000000000000000000000000000000000000000000000000815260040160405180910390fd5b5050565b610bfb83838360405180602001604052806000815250611159565b505050565b610c086126c7565b6040518060600160405280600d8152602001602181526020016064815250905090565b600080610c3783611b42565b9050600073ffffffffffffffffffffffffffffffffffffffff168173ffffffffffffffffffffffffffffffffffffffff1603610ca8576040517f08c379a0000000000000000000000000000000000000000000000000000000008152600401610c9f9061321f565b60405180910390fd5b80915050919050565b6000600954905090565b60008073ffffffffffffffffffffffffffffffffffffffff168273ffffffffffffffffffffffffffffffffffffffff1603610d2b576040517f08c379a0000000000000000000000000000000000000000000000000000000008152600401610d22906132b1565b60405180910390fd5b600360008373ffffffffffffffffffffffffffffffffffffffff1673ffffffffffffffffffffffffffffffffffffffff168152602001908152602001600020549050919050565b610d7a611ac4565b610d846000611b7f565b565b60007f0000000000000000000000000000000000000000000000000000000000000000905090565b6000600760009054906101000a900473ffffffffffffffffffffffffffffffffffffffff16905090565b606060018054610de790612f4e565b80601f0160208091040260200160405190810160405280929190818152602001828054610e1390612f4e565b8015610e605780601f10610e3557610100808354040283529160200191610e60565b820191906000526020600020905b815481529060010190602001808311610e4357829003601f168201915b5050505050905090565b610e7c610e756114cb565b8383611c45565b5050565b600080610e8b610c00565b90506000805b6003811015610f2557818510158015610ecb5750828160038110610eb857610eb76130a3565b5b602002015182610ec89190613300565b85105b15610eed57806002811115610ee357610ee2612d15565b5b9350505050610f58565b828160038110610f0057610eff6130a3565b5b602002015182610f109190613300565b91508080610f1d90613334565b915050610e91565b506040517f12806c9d00000000000000000000000000000000000000000000000000000000815260040160405180910390fd5b919050565b60007f0000000000000000000000000000000000000000000000000000000000000000341015610fb9576040517f5e212ca900000000000000000000000000000000000000000000000000000000815260040160405180910390fd5b7f000000000000000000000000000000000000000000000000000000000000000073ffffffffffffffffffffffffffffffffffffffff16635d3b1d307f00000000000000000000000000000000000000000000000000000000000000007f000000000000000000000000000000000000000000000000000000000000000060037f000000000000000000000000000000000000000000000000000000000000000060016040518663ffffffff1660e01b815260040161107c9594939291906133f4565b6020604051808303816000875af115801561109b573d6000803e3d6000fd5b505050506040513d601f19601f820116820180604052508101906110bf919061345c565b905033600882815481106110d6576110d56130a3565b5b9060005260206000200160006101000a81548173ffffffffffffffffffffffffffffffffffffffff021916908373ffffffffffffffffffffffffffffffffffffffff160217905550807ff873236e6cc0ecc5be1a9a35c95ee5b8d1ac4cc7bfef0cc5060391d6cc98e26b3360405161114e919061290e565b60405180910390a290565b61116a6111646114cb565b83611736565b6111a9576040517f08c379a00000000000000000000000000000000000000000000000000000000081526004016111a09061316d565b60405180910390fd5b6111b584848484611db1565b50505050565b60606111c682611480565b60006006600084815260200190815260200160002080546111e690612f4e565b80601f016020809104026020016040519081016040528092919081815260200182805461121290612f4e565b801561125f5780601f106112345761010080835404028352916020019161125f565b820191906000526020600020905b81548152906001019060200180831161124257829003601f168201915b505050505090506000611270611e0d565b905060008151036112855781925050506112c8565b6000825111156112ba5780826040516020016112a29291906134c5565b604051602081830303815290604052925050506112c8565b6112c384611e24565b925050505b919050565b60007f000000000000000000000000000000000000000000000000000000000000000067ffffffffffffffff16905090565b6000600560008473ffffffffffffffffffffffffffffffffffffffff1673ffffffffffffffffffffffffffffffffffffffff16815260200190815260200160002060008373ffffffffffffffffffffffffffffffffffffffff1673ffffffffffffffffffffffffffffffffffffffff16815260200190815260200160002060009054906101000a900460ff16905092915050565b61139b611ac4565b600073ffffffffffffffffffffffffffffffffffffffff168173ffffffffffffffffffffffffffffffffffffffff160361140a576040517f08c379a00000000000000000000000000000000000000000000000000000000081526004016114019061355b565b60405180910390fd5b61141381611b7f565b50565b60007f01ffc9a7000000000000000000000000000000000000000000000000000000007bffffffffffffffffffffffffffffffffffffffffffffffffffffffff1916827bffffffffffffffffffffffffffffffffffffffffffffffffffffffff1916149050919050565b61148981611e8c565b6114c8576040517f08c379a00000000000000000000000000000000000000000000000000000000081526004016114bf9061321f565b60405180910390fd5b50565b600033905090565b816004600083815260200190815260200160002060006101000a81548173ffffffffffffffffffffffffffffffffffffffff021916908373ffffffffffffffffffffffffffffffffffffffff160217905550808273ffffffffffffffffffffffffffffffffffffffff1661154683610c2b565b73ffffffffffffffffffffffffffffffffffffffff167f8c5be1e5ebec7d5bd14f71427d1e84f3dd0314c0f7b2291e5b200ac8c7c3b92560405160405180910390a45050565b6000600883815481106115a2576115a16130a3565b5b9060005260206000200160009054906101000a900473ffffffffffffffffffffffffffffffffffffffff1690506000600954905060006064846000815181106115ee576115ed6130a3565b5b602002602001015161160091906135aa565b9050600061160d82610e80565b90506116198484611ecd565b6116db83600a83600281111561163257611631612d15565b5b81548110611643576116426130a3565b5b90600052602060002001805461165890612f4e565b80601f016020809104026020016040519081016040528092919081815260200182805461168490612f4e565b80156116d15780601f106116a6576101008083540402835291602001916116d1565b820191906000526020600020905b8154815290600101906020018083116116b457829003601f168201915b5050505050611eeb565b6001600960008282546116ee9190613300565b925050819055507f8a269f26b688e110e9cbd887d163dab35cae678fa353a0292de532c0cac1ecdc81856040516117269291906135db565b60405180910390a1505050505050565b60008061174283610c2b565b90508073ffffffffffffffffffffffffffffffffffffffff168473ffffffffffffffffffffffffffffffffffffffff161480611784575061178381856112ff565b5b806117c257508373ffffffffffffffffffffffffffffffffffffffff166117aa846107b7565b73ffffffffffffffffffffffffffffffffffffffff16145b91505092915050565b8273ffffffffffffffffffffffffffffffffffffffff166117eb82610c2b565b73ffffffffffffffffffffffffffffffffffffffff1614611841576040517f08c379a000000000000000000000000000000000000000000000000000000000815260040161183890613676565b60405180910390fd5b600073ffffffffffffffffffffffffffffffffffffffff168273ffffffffffffffffffffffffffffffffffffffff16036118b0576040517f08c379a00000000000000000000000000000000000000000000000000000000081526004016118a790613708565b60405180910390fd5b6118bd8383836001611f58565b8273ffffffffffffffffffffffffffffffffffffffff166118dd82610c2b565b73ffffffffffffffffffffffffffffffffffffffff1614611933576040517f08c379a000000000000000000000000000000000000000000000000000000000815260040161192a90613676565b60405180910390fd5b6004600082815260200190815260200160002060006101000a81549073ffffffffffffffffffffffffffffffffffffffff02191690556001600360008573ffffffffffffffffffffffffffffffffffffffff1673ffffffffffffffffffffffffffffffffffffffff168152602001908152602001600020600082825403925050819055506001600360008473ffffffffffffffffffffffffffffffffffffffff1673ffffffffffffffffffffffffffffffffffffffff16815260200190815260200160002060008282540192505081905550816002600083815260200190815260200160002060006101000a81548173ffffffffffffffffffffffffffffffffffffffff021916908373ffffffffffffffffffffffffffffffffffffffff160217905550808273ffffffffffffffffffffffffffffffffffffffff168473ffffffffffffffffffffffffffffffffffffffff167fddf252ad1be2c89b69c2b068fc378daa952ba7f163c4a11628f55a4df523b3ef60405160405180910390a4611abf838383600161207e565b505050565b611acc6114cb565b73ffffffffffffffffffffffffffffffffffffffff16611aea610dae565b73ffffffffffffffffffffffffffffffffffffffff1614611b40576040517f08c379a0000000000000000000000000000000000000000000000000000000008152600401611b3790613774565b60405180910390fd5b565b60006002600083815260200190815260200160002060009054906101000a900473ffffffffffffffffffffffffffffffffffffffff169050919050565b6000600760009054906101000a900473ffffffffffffffffffffffffffffffffffffffff16905081600760006101000a81548173ffffffffffffffffffffffffffffffffffffffff021916908373ffffffffffffffffffffffffffffffffffffffff1602179055508173ffffffffffffffffffffffffffffffffffffffff168173ffffffffffffffffffffffffffffffffffffffff167f8be0079c531659141344cd1fd0a4f28419497f9722a3daafe3b4186f6b6457e060405160405180910390a35050565b8173ffffffffffffffffffffffffffffffffffffffff168373ffffffffffffffffffffffffffffffffffffffff1603611cb3576040517f08c379a0000000000000000000000000000000000000000000000000000000008152600401611caa906137e0565b60405180910390fd5b80600560008573ffffffffffffffffffffffffffffffffffffffff1673ffffffffffffffffffffffffffffffffffffffff16815260200190815260200160002060008473ffffffffffffffffffffffffffffffffffffffff1673ffffffffffffffffffffffffffffffffffffffff16815260200190815260200160002060006101000a81548160ff0219169083151502179055508173ffffffffffffffffffffffffffffffffffffffff168373ffffffffffffffffffffffffffffffffffffffff167f17307eab39ab6107e8899845ad3d59bd9653f200f220920489ca2b5937696c3183604051611da4919061279d565b60405180910390a3505050565b611dbc8484846117cb565b611dc884848484612084565b611e07576040517f08c379a0000000000000000000000000000000000000000000000000000000008152600401611dfe90613872565b60405180910390fd5b50505050565b606060405180602001604052806000815250905090565b6060611e2f82611480565b6000611e39611e0d565b90506000815111611e595760405180602001604052806000815250611e84565b80611e638461220b565b604051602001611e749291906134c5565b6040516020818303038152906040525b915050919050565b60008073ffffffffffffffffffffffffffffffffffffffff16611eae83611b42565b73ffffffffffffffffffffffffffffffffffffffff1614159050919050565b611ee78282604051806020016040528060008152506122d9565b5050565b611ef482611e8c565b611f33576040517f08c379a0000000000000000000000000000000000000000000000000000000008152600401611f2a90613904565b60405180910390fd5b80600660008481526020019081526020016000209081611f539190613ad0565b505050565b600181111561207857600073ffffffffffffffffffffffffffffffffffffffff168473ffffffffffffffffffffffffffffffffffffffff1614611fec5780600360008673ffffffffffffffffffffffffffffffffffffffff1673ffffffffffffffffffffffffffffffffffffffff1681526020019081526020016000206000828254611fe49190613ba2565b925050819055505b600073ffffffffffffffffffffffffffffffffffffffff168373ffffffffffffffffffffffffffffffffffffffff16146120775780600360008573ffffffffffffffffffffffffffffffffffffffff1673ffffffffffffffffffffffffffffffffffffffff168152602001908152602001600020600082825461206f9190613300565b925050819055505b5b50505050565b50505050565b60006120a58473ffffffffffffffffffffffffffffffffffffffff16612334565b156121fe578373ffffffffffffffffffffffffffffffffffffffff1663150b7a026120ce6114cb565b8786866040518563ffffffff1660e01b81526004016120f09493929190613c2b565b6020604051808303816000875af192505050801561212c57506040513d601f19601f820116820180604052508101906121299190613c8c565b60015b6121ae573d806000811461215c576040519150601f19603f3d011682016040523d82523d6000602084013e612161565b606091505b5060008151036121a6576040517f08c379a000000000000000000000000000000000000000000000000000000000815260040161219d90613872565b60405180910390fd5b805181602001fd5b63150b7a0260e01b7bffffffffffffffffffffffffffffffffffffffffffffffffffffffff1916817bffffffffffffffffffffffffffffffffffffffffffffffffffffffff191614915050612203565b600190505b949350505050565b60606000600161221a84612357565b01905060008167ffffffffffffffff8111156122395761223861299a565b5b6040519080825280601f01601f19166020018201604052801561226b5781602001600182028036833780820191505090505b509050600082602001820190505b6001156122ce578080600190039150507f3031323334353637383961626364656600000000000000000000000000000000600a86061a8153600a85816122c2576122c161357b565b5b04945060008503612279575b819350505050919050565b6122e383836124aa565b6122f06000848484612084565b61232f576040517f08c379a000000000000000000000000000000000000000000000000000000000815260040161232690613872565b60405180910390fd5b505050565b6000808273ffffffffffffffffffffffffffffffffffffffff163b119050919050565b600080600090507a184f03e93ff9f4daa797ed6e38ed64bf6a1f01000000000000000083106123b5577a184f03e93ff9f4daa797ed6e38ed64bf6a1f01000000000000000083816123ab576123aa61357b565b5b0492506040810190505b6d04ee2d6d415b85acef810000000083106123f2576d04ee2d6d415b85acef810000000083816123e8576123e761357b565b5b0492506020810190505b662386f26fc10000831061242157662386f26fc1000083816124175761241661357b565b5b0492506010810190505b6305f5e100831061244a576305f5e10083816124405761243f61357b565b5b0492506008810190505b612710831061246f5761271083816124655761246461357b565b5b0492506004810190505b6064831061249257606483816124885761248761357b565b5b0492506002810190505b600a83106124a1576001810190505b80915050919050565b600073ffffffffffffffffffffffffffffffffffffffff168273ffffffffffffffffffffffffffffffffffffffff1603612519576040517f08c379a000000000000000000000000000000000000000000000000000000000815260040161251090613d05565b60405180910390fd5b61252281611e8c565b15612562576040517f08c379a000000000000000000000000000000000000000000000000000000000815260040161255990613d71565b60405180910390fd5b612570600083836001611f58565b61257981611e8c565b156125b9576040517f08c379a00000000000000000000000000000000000000000000000000000000081526004016125b090613d71565b60405180910390fd5b6001600360008473ffffffffffffffffffffffffffffffffffffffff1673ffffffffffffffffffffffffffffffffffffffff16815260200190815260200160002060008282540192505081905550816002600083815260200190815260200160002060006101000a81548173ffffffffffffffffffffffffffffffffffffffff021916908373ffffffffffffffffffffffffffffffffffffffff160217905550808273ffffffffffffffffffffffffffffffffffffffff16600073ffffffffffffffffffffffffffffffffffffffff167fddf252ad1be2c89b69c2b068fc378daa952ba7f163c4a11628f55a4df523b3ef60405160405180910390a46126c360008383600161207e565b5050565b6040518060600160405280600390602082028036833780820191505090505090565b6000604051905090565b600080fd5b600080fd5b60007fffffffff0000000000000000000000000000000000000000000000000000000082169050919050565b612732816126fd565b811461273d57600080fd5b50565b60008135905061274f81612729565b92915050565b60006020828403121561276b5761276a6126f3565b5b600061277984828501612740565b91505092915050565b60008115159050919050565b61279781612782565b82525050565b60006020820190506127b2600083018461278e565b92915050565b600081519050919050565b600082825260208201905092915050565b60005b838110156127f25780820151818401526020810190506127d7565b60008484015250505050565b6000601f19601f8301169050919050565b600061281a826127b8565b61282481856127c3565b93506128348185602086016127d4565b61283d816127fe565b840191505092915050565b60006020820190508181036000830152612862818461280f565b905092915050565b6000819050919050565b61287d8161286a565b811461288857600080fd5b50565b60008135905061289a81612874565b92915050565b6000602082840312156128b6576128b56126f3565b5b60006128c48482850161288b565b91505092915050565b600073ffffffffffffffffffffffffffffffffffffffff82169050919050565b60006128f8826128cd565b9050919050565b612908816128ed565b82525050565b600060208201905061292360008301846128ff565b92915050565b612932816128ed565b811461293d57600080fd5b50565b60008135905061294f81612929565b92915050565b6000806040838503121561296c5761296b6126f3565b5b600061297a85828601612940565b925050602061298b8582860161288b565b9150509250929050565b600080fd5b7f4e487b7100000000000000000000000000000000000000000000000000000000600052604160045260246000fd5b6129d2826127fe565b810181811067ffffffffffffffff821117156129f1576129f061299a565b5b80604052505050565b6000612a046126e9565b9050612a1082826129c9565b919050565b600067ffffffffffffffff821115612a3057612a2f61299a565b5b602082029050602081019050919050565b600080fd5b6000612a59612a5484612a15565b6129fa565b90508083825260208201905060208402830185811115612a7c57612a7b612a41565b5b835b81811015612aa55780612a91888261288b565b845260208401935050602081019050612a7e565b5050509392505050565b600082601f830112612ac457612ac3612995565b5b8135612ad4848260208601612a46565b91505092915050565b60008060408385031215612af457612af36126f3565b5b6000612b028582860161288b565b925050602083013567ffffffffffffffff811115612b2357612b226126f8565b5b612b2f85828601612aaf565b9150509250929050565b600080600060608486031215612b5257612b516126f3565b5b6000612b6086828701612940565b9350506020612b7186828701612940565b9250506040612b828682870161288b565b9150509250925092565b600060039050919050565b600081905092915050565b6000819050919050565b612bb58161286a565b82525050565b6000612bc78383612bac565b60208301905092915050565b6000602082019050919050565b612be981612b8c565b612bf38184612b97565b9250612bfe82612ba2565b8060005b83811015612c2f578151612c168782612bbb565b9650612c2183612bd3565b925050600181019050612c02565b505050505050565b6000606082019050612c4c6000830184612be0565b92915050565b612c5b8161286a565b82525050565b6000602082019050612c766000830184612c52565b92915050565b600060208284031215612c9257612c916126f3565b5b6000612ca084828501612940565b91505092915050565b612cb281612782565b8114612cbd57600080fd5b50565b600081359050612ccf81612ca9565b92915050565b60008060408385031215612cec57612ceb6126f3565b5b6000612cfa85828601612940565b9250506020612d0b85828601612cc0565b9150509250929050565b7f4e487b7100000000000000000000000000000000000000000000000000000000600052602160045260246000fd5b60038110612d5557612d54612d15565b5b50565b6000819050612d6682612d44565b919050565b6000612d7682612d58565b9050919050565b612d8681612d6b565b82525050565b6000602082019050612da16000830184612d7d565b92915050565b600080fd5b600067ffffffffffffffff821115612dc757612dc661299a565b5b612dd0826127fe565b9050602081019050919050565b82818337600083830152505050565b6000612dff612dfa84612dac565b6129fa565b905082815260208101848484011115612e1b57612e1a612da7565b5b612e26848285612ddd565b509392505050565b600082601f830112612e4357612e42612995565b5b8135612e53848260208601612dec565b91505092915050565b60008060008060808587031215612e7657612e756126f3565b5b6000612e8487828801612940565b9450506020612e9587828801612940565b9350506040612ea68782880161288b565b925050606085013567ffffffffffffffff811115612ec757612ec66126f8565b5b612ed387828801612e2e565b91505092959194509250565b60008060408385031215612ef657612ef56126f3565b5b6000612f0485828601612940565b9250506020612f1585828601612940565b9150509250929050565b7f4e487b7100000000000000000000000000000000000000000000000000000000600052602260045260246000fd5b60006002820490506001821680612f6657607f821691505b602082108103612f7957612f78612f1f565b5b50919050565b7f4552433732313a20617070726f76616c20746f2063757272656e74206f776e6560008201527f7200000000000000000000000000000000000000000000000000000000000000602082015250565b6000612fdb6021836127c3565b9150612fe682612f7f565b604082019050919050565b6000602082019050818103600083015261300a81612fce565b9050919050565b7f4552433732313a20617070726f76652063616c6c6572206973206e6f7420746f60008201527f6b656e206f776e6572206f7220617070726f76656420666f7220616c6c000000602082015250565b600061306d603d836127c3565b915061307882613011565b604082019050919050565b6000602082019050818103600083015261309c81613060565b9050919050565b7f4e487b7100000000000000000000000000000000000000000000000000000000600052603260045260246000fd5b60006040820190506130e760008301856128ff565b6130f460208301846128ff565b9392505050565b7f4552433732313a2063616c6c6572206973206e6f7420746f6b656e206f776e6560008201527f72206f7220617070726f76656400000000000000000000000000000000000000602082015250565b6000613157602d836127c3565b9150613162826130fb565b604082019050919050565b600060208201905081810360008301526131868161314a565b9050919050565b600081905092915050565b50565b60006131a860008361318d565b91506131b382613198565b600082019050919050565b60006131c98261319b565b9150819050919050565b7f4552433732313a20696e76616c696420746f6b656e2049440000000000000000600082015250565b60006132096018836127c3565b9150613214826131d3565b602082019050919050565b60006020820190508181036000830152613238816131fc565b9050919050565b7f4552433732313a2061646472657373207a65726f206973206e6f74206120766160008201527f6c6964206f776e65720000000000000000000000000000000000000000000000602082015250565b600061329b6029836127c3565b91506132a68261323f565b604082019050919050565b600060208201905081810360008301526132ca8161328e565b9050919050565b7f4e487b7100000000000000000000000000000000000000000000000000000000600052601160045260246000fd5b600061330b8261286a565b91506133168361286a565b925082820190508082111561332e5761332d6132d1565b5b92915050565b600061333f8261286a565b91507fffffffffffffffffffffffffffffffffffffffffffffffffffffffffffffffff8203613371576133706132d1565b5b600182019050919050565b6000819050919050565b61338f8161337c565b82525050565b600067ffffffffffffffff82169050919050565b6133b281613395565b82525050565b600061ffff82169050919050565b6133cf816133b8565b82525050565b600063ffffffff82169050919050565b6133ee816133d5565b82525050565b600060a0820190506134096000830188613386565b61341660208301876133a9565b61342360408301866133c6565b61343060608301856133e5565b61343d60808301846133e5565b9695505050505050565b60008151905061345681612874565b92915050565b600060208284031215613472576134716126f3565b5b600061348084828501613447565b91505092915050565b600081905092915050565b600061349f826127b8565b6134a98185613489565b93506134b98185602086016127d4565b80840191505092915050565b60006134d18285613494565b91506134dd8284613494565b91508190509392505050565b7f4f776e61626c653a206e6577206f776e657220697320746865207a65726f206160008201527f6464726573730000000000000000000000000000000000000000000000000000602082015250565b60006135456026836127c3565b9150613550826134e9565b604082019050919050565b6000602082019050818103600083015261357481613538565b9050919050565b7f4e487b7100000000000000000000000000000000000000000000000000000000600052601260045260246000fd5b60006135b58261286a565b91506135c08361286a565b9250826135d0576135cf61357b565b5b828206905092915050565b60006040820190506135f06000830185612d7d565b6135fd60208301846128ff565b9392505050565b7f4552433732313a207472616e736665722066726f6d20696e636f72726563742060008201527f6f776e6572000000000000000000000000000000000000000000000000000000602082015250565b60006136606025836127c3565b915061366b82613604565b604082019050919050565b6000602082019050818103600083015261368f81613653565b9050919050565b7f4552433732313a207472616e7366657220746f20746865207a65726f2061646460008201527f7265737300000000000000000000000000000000000000000000000000000000602082015250565b60006136f26024836127c3565b91506136fd82613696565b604082019050919050565b60006020820190508181036000830152613721816136e5565b9050919050565b7f4f776e61626c653a2063616c6c6572206973206e6f7420746865206f776e6572600082015250565b600061375e6020836127c3565b915061376982613728565b602082019050919050565b6000602082019050818103600083015261378d81613751565b9050919050565b7f4552433732313a20617070726f766520746f2063616c6c657200000000000000600082015250565b60006137ca6019836127c3565b91506137d582613794565b602082019050919050565b600060208201905081810360008301526137f9816137bd565b9050919050565b7f4552433732313a207472616e7366657220746f206e6f6e20455243373231526560008201527f63656976657220696d706c656d656e7465720000000000000000000000000000602082015250565b600061385c6032836127c3565b915061386782613800565b604082019050919050565b6000602082019050818103600083015261388b8161384f565b9050919050565b7f45524337323155524953746f726167653a2055524920736574206f66206e6f6e60008201527f6578697374656e7420746f6b656e000000000000000000000000000000000000602082015250565b60006138ee602e836127c3565b91506138f982613892565b604082019050919050565b6000602082019050818103600083015261391d816138e1565b9050919050565b60008190508160005260206000209050919050565b60006020601f8301049050919050565b600082821b905092915050565b6000600883026139867fffffffffffffffffffffffffffffffffffffffffffffffffffffffffffffffff82613949565b6139908683613949565b95508019841693508086168417925050509392505050565b6000819050919050565b60006139cd6139c86139c38461286a565b6139a8565b61286a565b9050919050565b6000819050919050565b6139e7836139b2565b6139fb6139f3826139d4565b848454613956565b825550505050565b600090565b613a10613a03565b613a1b8184846139de565b505050565b5b81811015613a3f57613a34600082613a08565b600181019050613a21565b5050565b601f821115613a8457613a5581613924565b613a5e84613939565b81016020851015613a6d578190505b613a81613a7985613939565b830182613a20565b50505b505050565b600082821c905092915050565b6000613aa760001984600802613a89565b1980831691505092915050565b6000613ac08383613a96565b9150826002028217905092915050565b613ad9826127b8565b67ffffffffffffffff811115613af257613af161299a565b5b613afc8254612f4e565b613b07828285613a43565b600060209050601f831160018114613b3a5760008415613b28578287015190505b613b328582613ab4565b865550613b9a565b601f198416613b4886613924565b60005b82811015613b7057848901518255600182019150602085019450602081019050613b4b565b86831015613b8d5784890151613b89601f891682613a96565b8355505b6001600288020188555050505b505050505050565b6000613bad8261286a565b9150613bb88361286a565b9250828203905081811115613bd057613bcf6132d1565b5b92915050565b600081519050919050565b600082825260208201905092915050565b6000613bfd82613bd6565b613c078185613be1565b9350613c178185602086016127d4565b613c20816127fe565b840191505092915050565b6000608082019050613c4060008301876128ff565b613c4d60208301866128ff565b613c5a6040830185612c52565b8181036060830152613c6c8184613bf2565b905095945050505050565b600081519050613c8681612729565b92915050565b600060208284031215613ca257613ca16126f3565b5b6000613cb084828501613c77565b91505092915050565b7f4552433732313a206d696e7420746f20746865207a65726f2061646472657373600082015250565b6000613cef6020836127c3565b9150613cfa82613cb9565b602082019050919050565b60006020820190508181036000830152613d1e81613ce2565b9050919050565b7f4552433732313a20746f6b656e20616c7265616479206d696e74656400000000600082015250565b6000613d5b601c836127c3565b9150613d6682613d25565b602082019050919050565b60006020820190508181036000830152613d8a81613d4e565b905091905056fea26469706673582212201ccbe898bf292cfdfc375fb56549da21b1718b7743ddd6abf8734247708e688a64736f6c63430008110033",
  "devdoc": {
    "kind": "dev",
    "methods": {
      "approve(address,uint256)": {
        "details": "See {IERC721-approve}."
      },
      "balanceOf(address)": {
        "details": "See {IERC721-balanceOf}."
      },
      "getApproved(uint256)": {
        "details": "See {IERC721-getApproved}."
      },
      "isApprovedForAll(address,address)": {
        "details": "See {IERC721-isApprovedForAll}."
      },
      "name()": {
        "details": "See {IERC721Metadata-name}."
      },
      "owner()": {
        "details": "Returns the address of the current owner."
      },
      "ownerOf(uint256)": {
        "details": "See {IERC721-ownerOf}."
      },
      "renounceOwnership()": {
        "details": "Leaves the contract without owner. It will not be possible to call `onlyOwner` functions anymore. Can only be called by the current owner. NOTE: Renouncing ownership will leave the contract without an owner, thereby removing any functionality that is only available to the owner."
      },
      "safeTransferFrom(address,address,uint256)": {
        "details": "See {IERC721-safeTransferFrom}."
      },
      "safeTransferFrom(address,address,uint256,bytes)": {
        "details": "See {IERC721-safeTransferFrom}."
      },
      "setApprovalForAll(address,bool)": {
        "details": "See {IERC721-setApprovalForAll}."
      },
      "supportsInterface(bytes4)": {
        "details": "See {IERC165-supportsInterface}."
      },
      "symbol()": {
        "details": "See {IERC721Metadata-symbol}."
      },
      "tokenURI(uint256)": {
        "details": "See {IERC721Metadata-tokenURI}."
      },
      "transferFrom(address,address,uint256)": {
        "details": "See {IERC721-transferFrom}."
      },
      "transferOwnership(address)": {
        "details": "Transfers ownership of the contract to a new account (`newOwner`). Can only be called by the current owner."
      }
    },
    "version": 1
  },
  "userdoc": {
    "kind": "user",
    "methods": {},
    "version": 1
  },
  "storageLayout": {
    "storage": [
      {
        "astId": 292,
        "contract": "contracts/RandomIpfsNft.sol:RandomIpfsNft",
        "label": "_name",
        "offset": 0,
        "slot": "0",
        "type": "t_string_storage"
      },
      {
        "astId": 294,
        "contract": "contracts/RandomIpfsNft.sol:RandomIpfsNft",
        "label": "_symbol",
        "offset": 0,
        "slot": "1",
        "type": "t_string_storage"
      },
      {
        "astId": 298,
        "contract": "contracts/RandomIpfsNft.sol:RandomIpfsNft",
        "label": "_owners",
        "offset": 0,
        "slot": "2",
        "type": "t_mapping(t_uint256,t_address)"
      },
      {
        "astId": 302,
        "contract": "contracts/RandomIpfsNft.sol:RandomIpfsNft",
        "label": "_balances",
        "offset": 0,
        "slot": "3",
        "type": "t_mapping(t_address,t_uint256)"
      },
      {
        "astId": 306,
        "contract": "contracts/RandomIpfsNft.sol:RandomIpfsNft",
        "label": "_tokenApprovals",
        "offset": 0,
        "slot": "4",
        "type": "t_mapping(t_uint256,t_address)"
      },
      {
        "astId": 312,
        "contract": "contracts/RandomIpfsNft.sol:RandomIpfsNft",
        "label": "_operatorApprovals",
        "offset": 0,
        "slot": "5",
        "type": "t_mapping(t_address,t_mapping(t_address,t_bool))"
      },
      {
        "astId": 1358,
        "contract": "contracts/RandomIpfsNft.sol:RandomIpfsNft",
        "label": "_tokenURIs",
        "offset": 0,
        "slot": "6",
        "type": "t_mapping(t_uint256,t_string_storage)"
      },
      {
        "astId": 161,
        "contract": "contracts/RandomIpfsNft.sol:RandomIpfsNft",
        "label": "_owner",
        "offset": 0,
        "slot": "7",
        "type": "t_address"
      },
      {
        "astId": 2979,
        "contract": "contracts/RandomIpfsNft.sol:RandomIpfsNft",
        "label": "s_requestIdToSenderId",
        "offset": 0,
        "slot": "8",
        "type": "t_array(t_address)dyn_storage"
      },
      {
        "astId": 2981,
        "contract": "contracts/RandomIpfsNft.sol:RandomIpfsNft",
        "label": "s_tokenCounter",
        "offset": 0,
        "slot": "9",
        "type": "t_uint256"
      },
      {
        "astId": 2987,
        "contract": "contracts/RandomIpfsNft.sol:RandomIpfsNft",
        "label": "s_dogTokenUris",
        "offset": 0,
        "slot": "10",
        "type": "t_array(t_string_storage)dyn_storage"
      }
    ],
    "types": {
      "t_address": {
        "encoding": "inplace",
        "label": "address",
        "numberOfBytes": "20"
      },
      "t_array(t_address)dyn_storage": {
        "base": "t_address",
        "encoding": "dynamic_array",
        "label": "address[]",
        "numberOfBytes": "32"
      },
      "t_array(t_string_storage)dyn_storage": {
        "base": "t_string_storage",
        "encoding": "dynamic_array",
        "label": "string[]",
        "numberOfBytes": "32"
      },
      "t_bool": {
        "encoding": "inplace",
        "label": "bool",
        "numberOfBytes": "1"
      },
      "t_mapping(t_address,t_bool)": {
        "encoding": "mapping",
        "key": "t_address",
        "label": "mapping(address => bool)",
        "numberOfBytes": "32",
        "value": "t_bool"
      },
      "t_mapping(t_address,t_mapping(t_address,t_bool))": {
        "encoding": "mapping",
        "key": "t_address",
        "label": "mapping(address => mapping(address => bool))",
        "numberOfBytes": "32",
        "value": "t_mapping(t_address,t_bool)"
      },
      "t_mapping(t_address,t_uint256)": {
        "encoding": "mapping",
        "key": "t_address",
        "label": "mapping(address => uint256)",
        "numberOfBytes": "32",
        "value": "t_uint256"
      },
      "t_mapping(t_uint256,t_address)": {
        "encoding": "mapping",
        "key": "t_uint256",
        "label": "mapping(uint256 => address)",
        "numberOfBytes": "32",
        "value": "t_address"
      },
      "t_mapping(t_uint256,t_string_storage)": {
        "encoding": "mapping",
        "key": "t_uint256",
        "label": "mapping(uint256 => string)",
        "numberOfBytes": "32",
        "value": "t_string_storage"
      },
      "t_string_storage": {
        "encoding": "bytes",
        "label": "string",
        "numberOfBytes": "32"
      },
      "t_uint256": {
        "encoding": "inplace",
        "label": "uint256",
        "numberOfBytes": "32"
      }
    }
  }
}